{
  "contractName": "Clinica",
  "abi": [
    {
      "constant": true,
      "inputs": [],
      "name": "nome",
      "outputs": [
        {
          "name": "",
          "type": "string"
        }
      ],
      "payable": false,
      "stateMutability": "view",
      "type": "function",
      "signature": "0x2deb124b"
    },
    {
      "constant": true,
      "inputs": [],
      "name": "contadorDeConsultas",
      "outputs": [
        {
          "name": "",
          "type": "uint256"
        }
      ],
      "payable": false,
      "stateMutability": "view",
      "type": "function",
      "signature": "0xdf5e9477"
    },
    {
      "inputs": [],
      "payable": false,
      "stateMutability": "nonpayable",
      "type": "constructor",
      "signature": "constructor"
    }
  ],
  "bytecode": "0x6080604052600060015534801561001557600080fd5b506040805190810160405280601081526020017f436c696e6963612064612053617564650000000000000000000000000000000081525060009080519060200190610061929190610067565b5061010c565b828054600181600116156101000203166002900490600052602060002090601f016020900481019282601f106100a857805160ff19168380011785556100d6565b828001600101855582156100d6579182015b828111156100d55782518255916020019190600101906100ba565b5b5090506100e391906100e7565b5090565b61010991905b808211156101055760008160009055506001016100ed565b5090565b90565b6101dc8061011b6000396000f3fe60806040526004361061004c576000357c0100000000000000000000000000000000000000000000000000000000900463ffffffff1680632deb124b14610051578063df5e9477146100e1575b600080fd5b34801561005d57600080fd5b5061006661010c565b6040518080602001828103825283818151815260200191508051906020019080838360005b838110156100a657808201518184015260208101905061008b565b50505050905090810190601f1680156100d35780820380516001836020036101000a031916815260200191505b509250505060405180910390f35b3480156100ed57600080fd5b506100f66101aa565b6040518082815260200191505060405180910390f35b60008054600181600116156101000203166002900480601f0160208091040260200160405190810160405280929190818152602001828054600181600116156101000203166002900480156101a25780601f10610177576101008083540402835291602001916101a2565b820191906000526020600020905b81548152906001019060200180831161018557829003601f168201915b505050505081565b6001548156fea165627a7a72305820e2268634dec6aaabc1f24105d4e9ad71457a99e645b5565befb3dbb80c0090a20029",
  "source": "pragma solidity ^0.5.0;\r\n\r\ncontract Clinica {\r\n    string public nome;\r\n    uint public contadorDeConsultas = 0;\r\n\r\n    struct Consulta {\r\n        uint id;\r\n        string nomeMedico;\r\n        string nomePaciente;\r\n        uint price;\r\n        bool prescricaoExistente;\r\n    }\r\n\r\n    constructor() public {\r\n        nome = \"Clinica da Saude\";\r\n    }\r\n\r\n    /* function marcarConsulta() {\r\n        // Garantir a integridade dos parametros\r\n        // Marcar consulta\r\n        // Trigger an event\r\n    } */\r\n}",
  "sourcePath": "D:/Matheus/Blockchain/Prescritor/src/contracts/Clinica.sol",
  "compiler": {
    "name": "solc",
    "version": "0.5.0+commit.1d4f565a.Emscripten.clang"
  },
  "schemaVersion": "3.0.2",
  "updatedAt": "2019-12-05T15:21:26.844Z",
  "devdoc": {
    "methods": {}
  },
  "userdoc": {
    "methods": {}
  }
}