{
  "contractName": "Prescritor",
  "abi": [
    {
      "constant": true,
      "inputs": [],
      "name": "nome",
      "outputs": [
        {
          "name": "",
          "type": "string"
        }
      ],
      "payable": false,
      "stateMutability": "view",
      "type": "function",
      "signature": "0x2deb124b"
    },
    {
      "constant": true,
      "inputs": [
        {
          "name": "",
          "type": "uint256"
        }
      ],
      "name": "receitas",
      "outputs": [
        {
          "name": "id",
          "type": "uint256"
        },
        {
          "name": "codigo",
          "type": "uint256"
        },
        {
          "name": "medico",
          "type": "address"
        },
        {
          "name": "paciente",
          "type": "address"
        },
        {
          "name": "medicamento",
          "type": "string"
        },
        {
          "name": "dosagem",
          "type": "uint256"
        },
        {
          "name": "medida",
          "type": "string"
        },
        {
          "name": "utilizada",
          "type": "bool"
        }
      ],
      "payable": false,
      "stateMutability": "view",
      "type": "function",
      "signature": "0x49d772f4"
    },
    {
      "constant": true,
      "inputs": [],
      "name": "contReceitas",
      "outputs": [
        {
          "name": "",
          "type": "uint256"
        }
      ],
      "payable": false,
      "stateMutability": "view",
      "type": "function",
      "signature": "0xba8c3539"
    },
    {
      "inputs": [],
      "payable": false,
      "stateMutability": "nonpayable",
      "type": "constructor",
      "signature": "constructor"
    },
    {
      "anonymous": false,
      "inputs": [
        {
          "indexed": false,
          "name": "id",
          "type": "uint256"
        },
        {
          "indexed": false,
          "name": "codigo",
          "type": "uint256"
        },
        {
          "indexed": false,
          "name": "medico",
          "type": "address"
        },
        {
          "indexed": false,
          "name": "paciente",
          "type": "address"
        },
        {
          "indexed": false,
          "name": "medicamento",
          "type": "string"
        },
        {
          "indexed": false,
          "name": "dosagem",
          "type": "uint256"
        },
        {
          "indexed": false,
          "name": "medida",
          "type": "string"
        },
        {
          "indexed": false,
          "name": "utilizada",
          "type": "bool"
        }
      ],
      "name": "ReceitaGerada",
      "type": "event",
      "signature": "0xcde1d48245f77a8ceabf50c8569dbe6510d9fc2db4bd3431c4374dcbef8ecf06"
    },
    {
      "anonymous": false,
      "inputs": [
        {
          "indexed": false,
          "name": "id",
          "type": "uint256"
        },
        {
          "indexed": false,
          "name": "codigo",
          "type": "uint256"
        },
        {
          "indexed": false,
          "name": "medico",
          "type": "address"
        },
        {
          "indexed": false,
          "name": "paciente",
          "type": "address"
        },
        {
          "indexed": false,
          "name": "medicamento",
          "type": "string"
        },
        {
          "indexed": false,
          "name": "dosagem",
          "type": "uint256"
        },
        {
          "indexed": false,
          "name": "medida",
          "type": "string"
        },
        {
          "indexed": false,
          "name": "utilizada",
          "type": "bool"
        }
      ],
      "name": "ReceitaValidada",
      "type": "event",
      "signature": "0x97b84aeb44e514c56627d3dfe8c555d06c614310766b74b74a49a49b3a8bbd28"
    },
    {
      "constant": false,
      "inputs": [
        {
          "name": "_paciente",
          "type": "address"
        },
        {
          "name": "_medicamento",
          "type": "string"
        },
        {
          "name": "_dosagem",
          "type": "uint256"
        },
        {
          "name": "_medida",
          "type": "string"
        }
      ],
      "name": "gerarReceita",
      "outputs": [],
      "payable": false,
      "stateMutability": "nonpayable",
      "type": "function",
      "signature": "0x92daad43"
    },
    {
      "constant": false,
      "inputs": [
        {
          "name": "_id",
          "type": "uint256"
        }
      ],
      "name": "validarReceita",
      "outputs": [],
      "payable": false,
      "stateMutability": "nonpayable",
      "type": "function",
      "signature": "0x701b280e"
    }
  ],
  "bytecode": "0x608060405260006001556010600255662386f26fc1000060035560606040519081016040528073dc962c3b60d18c67d533ae9aac1d998ba85c8bd873ffffffffffffffffffffffffffffffffffffffff1673ffffffffffffffffffffffffffffffffffffffff168152602001738c7f1a4a79e4c71faf3cc1f19f4aa7a97831662373ffffffffffffffffffffffffffffffffffffffff1673ffffffffffffffffffffffffffffffffffffffff1681526020017355c6db08e43b3696a44d0414503313555dc4d2ba73ffffffffffffffffffffffffffffffffffffffff1673ffffffffffffffffffffffffffffffffffffffff1681525060059060036200010792919062000212565b506040805190810160405280737465bf48659b1763d388f93f3c58b3998e9f0c9573ffffffffffffffffffffffffffffffffffffffff1673ffffffffffffffffffffffffffffffffffffffff1681526020017337ef8448cf8ffbb7be7c70c51d01a682065a397373ffffffffffffffffffffffffffffffffffffffff1673ffffffffffffffffffffffffffffffffffffffff168152506008906002620001af92919062000294565b50348015620001bd57600080fd5b506040805190810160405280601981526020017f436f6e747261746f2064652050726573637269c3a7c3b5657300000000000000815250600090805190602001906200020b92919062000316565b506200040b565b826003810192821562000281579160200282015b82811115620002805782518260006101000a81548173ffffffffffffffffffffffffffffffffffffffff021916908373ffffffffffffffffffffffffffffffffffffffff1602179055509160200191906001019062000226565b5b5090506200029091906200039d565b5090565b826002810192821562000303579160200282015b82811115620003025782518260006101000a81548173ffffffffffffffffffffffffffffffffffffffff021916908373ffffffffffffffffffffffffffffffffffffffff16021790555091602001919060010190620002a8565b5b5090506200031291906200039d565b5090565b828054600181600116156101000203166002900490600052602060002090601f016020900481019282601f106200035957805160ff19168380011785556200038a565b828001600101855582156200038a579182015b82811115620003895782518255916020019190600101906200036c565b5b509050620003999190620003e3565b5090565b620003e091905b80821115620003dc57600081816101000a81549073ffffffffffffffffffffffffffffffffffffffff021916905550600101620003a4565b5090565b90565b6200040891905b8082111562000404576000816000905550600101620003ea565b5090565b90565b611449806200041b6000396000f3fe60806040526004361061006d576000357c0100000000000000000000000000000000000000000000000000000000900463ffffffff1680632deb124b1461007257806349d772f414610102578063701b280e146102a857806392daad43146102e3578063ba8c35391461046c575b600080fd5b34801561007e57600080fd5b50610087610497565b6040518080602001828103825283818151815260200191508051906020019080838360005b838110156100c75780820151818401526020810190506100ac565b50505050905090810190601f1680156100f45780820380516001836020036101000a031916815260200191505b509250505060405180910390f35b34801561010e57600080fd5b5061013b6004803603602081101561012557600080fd5b8101908080359060200190929190505050610535565b604051808981526020018881526020018773ffffffffffffffffffffffffffffffffffffffff1673ffffffffffffffffffffffffffffffffffffffff1681526020018673ffffffffffffffffffffffffffffffffffffffff1673ffffffffffffffffffffffffffffffffffffffff168152602001806020018581526020018060200184151515158152602001838103835287818151815260200191508051906020019080838360005b838110156101ff5780820151818401526020810190506101e4565b50505050905090810190601f16801561022c5780820380516001836020036101000a031916815260200191505b50838103825285818151815260200191508051906020019080838360005b8381101561026557808201518184015260208101905061024a565b50505050905090810190601f1680156102925780820380516001836020036101000a031916815260200191505b509a505050505050505050505060405180910390f35b3480156102b457600080fd5b506102e1600480360360208110156102cb57600080fd5b81019080803590602001909291905050506106fa565b005b3480156102ef57600080fd5b5061046a6004803603608081101561030657600080fd5b81019080803573ffffffffffffffffffffffffffffffffffffffff1690602001909291908035906020019064010000000081111561034357600080fd5b82018360208201111561035557600080fd5b8035906020019184600183028401116401000000008311171561037757600080fd5b91908080601f016020809104026020016040519081016040528093929190818152602001838380828437600081840152601f19601f82011690508083019250505050505050919291929080359060200190929190803590602001906401000000008111156103e457600080fd5b8201836020820111156103f657600080fd5b8035906020019184600183028401116401000000008311171561041857600080fd5b91908080601f016020809104026020016040519081016040528093929190818152602001838380828437600081840152601f19601f820116905080830192505050505050509192919290505050610deb565b005b34801561047857600080fd5b506104816112d7565b6040518082815260200191505060405180910390f35b60008054600181600116156101000203166002900480601f01602080910402602001604051908101604052809291908181526020018280546001816001161561010002031660029004801561052d5780601f106105025761010080835404028352916020019161052d565b820191906000526020600020905b81548152906001019060200180831161051057829003601f168201915b505050505081565b60046020528060005260406000206000915090508060000154908060010154908060020160009054906101000a900473ffffffffffffffffffffffffffffffffffffffff16908060030160009054906101000a900473ffffffffffffffffffffffffffffffffffffffff1690806004018054600181600116156101000203166002900480601f0160208091040260200160405190810160405280929190818152602001828054600181600116156101000203166002900480156106395780601f1061060e57610100808354040283529160200191610639565b820191906000526020600020905b81548152906001019060200180831161061c57829003601f168201915b505050505090806005015490806006018054600181600116156101000203166002900480601f0160208091040260200160405190810160405280929190818152602001828054600181600116156101000203166002900480156106dd5780601f106106b2576101008083540402835291602001916106dd565b820191906000526020600020905b8154815290600101906020018083116106c057829003601f168201915b5050505050908060070160009054906101000a900460ff16905088565b6008600060028110151561070a57fe5b0160009054906101000a900473ffffffffffffffffffffffffffffffffffffffff1673ffffffffffffffffffffffffffffffffffffffff163373ffffffffffffffffffffffffffffffffffffffff1614806107c157506008600160028110151561077057fe5b0160009054906101000a900473ffffffffffffffffffffffffffffffffffffffff1673ffffffffffffffffffffffffffffffffffffffff163373ffffffffffffffffffffffffffffffffffffffff16145b1515610835576040517f08c379a00000000000000000000000000000000000000000000000000000000081526004018080602001828103825260118152602001807f5065726d697373616f206e65676164612100000000000000000000000000000081525060200191505060405180910390fd5b61083d611304565b60046000838152602001908152602001600020610100604051908101604052908160008201548152602001600182015481526020016002820160009054906101000a900473ffffffffffffffffffffffffffffffffffffffff1673ffffffffffffffffffffffffffffffffffffffff1673ffffffffffffffffffffffffffffffffffffffff1681526020016003820160009054906101000a900473ffffffffffffffffffffffffffffffffffffffff1673ffffffffffffffffffffffffffffffffffffffff1673ffffffffffffffffffffffffffffffffffffffff168152602001600482018054600181600116156101000203166002900480601f0160208091040260200160405190810160405280929190818152602001828054600181600116156101000203166002900480156109b65780601f1061098b576101008083540402835291602001916109b6565b820191906000526020600020905b81548152906001019060200180831161099957829003601f168201915b5050505050815260200160058201548152602001600682018054600181600116156101000203166002900480601f016020809104026020016040519081016040528092919081815260200182805460018160011615610100020316600290048015610a625780601f10610a3757610100808354040283529160200191610a62565b820191906000526020600020905b815481529060010190602001808311610a4557829003601f168201915b505050505081526020016007820160009054906101000a900460ff1615151515815250509050600015158160e001511515141515610b08576040517f08c379a000000000000000000000000000000000000000000000000000000000815260040180806020018281038252601e8152602001807f457374612072656365697461206a6120666f69207574696c697a61646121000081525060200191505060405180910390fd5b60018160e00190151590811515815250508060046000848152602001908152602001600020600082015181600001556020820151816001015560408201518160020160006101000a81548173ffffffffffffffffffffffffffffffffffffffff021916908373ffffffffffffffffffffffffffffffffffffffff16021790555060608201518160030160006101000a81548173ffffffffffffffffffffffffffffffffffffffff021916908373ffffffffffffffffffffffffffffffffffffffff1602179055506080820151816004019080519060200190610beb929190611378565b5060a0820151816005015560c0820151816006019080519060200190610c12929190611378565b5060e08201518160070160006101000a81548160ff0219169083151502179055509050507f97b84aeb44e514c56627d3dfe8c555d06c614310766b74b74a49a49b3a8bbd288282602001518360400151846060015185608001518660a001518760c001518860e00151604051808981526020018881526020018773ffffffffffffffffffffffffffffffffffffffff1673ffffffffffffffffffffffffffffffffffffffff1681526020018673ffffffffffffffffffffffffffffffffffffffff1673ffffffffffffffffffffffffffffffffffffffff168152602001806020018581526020018060200184151515158152602001838103835287818151815260200191508051906020019080838360005b83811015610d3f578082015181840152602081019050610d24565b50505050905090810190601f168015610d6c5780820380516001836020036101000a031916815260200191505b50838103825285818151815260200191508051906020019080838360005b83811015610da5578082015181840152602081019050610d8a565b50505050905090810190601f168015610dd25780820380516001836020036101000a031916815260200191505b509a505050505050505050505060405180910390a15050565b60056000600381101515610dfb57fe5b0160009054906101000a900473ffffffffffffffffffffffffffffffffffffffff1673ffffffffffffffffffffffffffffffffffffffff163373ffffffffffffffffffffffffffffffffffffffff161480610eb2575060056001600381101515610e6157fe5b0160009054906101000a900473ffffffffffffffffffffffffffffffffffffffff1673ffffffffffffffffffffffffffffffffffffffff163373ffffffffffffffffffffffffffffffffffffffff16145b80610f19575060056002600381101515610ec857fe5b0160009054906101000a900473ffffffffffffffffffffffffffffffffffffffff1673ffffffffffffffffffffffffffffffffffffffff163373ffffffffffffffffffffffffffffffffffffffff16145b1515610f8d576040517f08c379a00000000000000000000000000000000000000000000000000000000081526004018080602001828103825260118152602001807f5065726d697373616f206e65676164612100000000000000000000000000000081525060200191505060405180910390fd5b600160008154809291906001019190505550610100604051908101604052806001548152602001610fbd856112dd565b81526020013373ffffffffffffffffffffffffffffffffffffffff1681526020018573ffffffffffffffffffffffffffffffffffffffff16815260200184815260200183815260200182815260200160001515815250600460006001548152602001908152602001600020600082015181600001556020820151816001015560408201518160020160006101000a81548173ffffffffffffffffffffffffffffffffffffffff021916908373ffffffffffffffffffffffffffffffffffffffff16021790555060608201518160030160006101000a81548173ffffffffffffffffffffffffffffffffffffffff021916908373ffffffffffffffffffffffffffffffffffffffff16021790555060808201518160040190805190602001906110e6929190611378565b5060a0820151816005015560c082015181600601908051906020019061110d929190611378565b5060e08201518160070160006101000a81548160ff0219169083151502179055509050507fcde1d48245f77a8ceabf50c8569dbe6510d9fc2db4bd3431c4374dcbef8ecf0660015461115e856112dd565b33878787876000604051808981526020018881526020018773ffffffffffffffffffffffffffffffffffffffff1673ffffffffffffffffffffffffffffffffffffffff1681526020018673ffffffffffffffffffffffffffffffffffffffff1673ffffffffffffffffffffffffffffffffffffffff168152602001806020018581526020018060200184151515158152602001838103835287818151815260200191508051906020019080838360005b8381101561122957808201518184015260208101905061120e565b50505050905090810190601f1680156112565780820380516001836020036101000a031916815260200191505b50838103825285818151815260200191508051906020019080838360005b8381101561128f578082015181840152602081019050611274565b50505050905090810190601f1680156112bc5780820380516001836020036101000a031916815260200191505b509a505050505050505050505060405180910390a150505050565b60015481565b6000808280519060200120600190049050600354818115156112fb57fe5b06915050919050565b610100604051908101604052806000815260200160008152602001600073ffffffffffffffffffffffffffffffffffffffff168152602001600073ffffffffffffffffffffffffffffffffffffffff1681526020016060815260200160008152602001606081526020016000151581525090565b828054600181600116156101000203166002900490600052602060002090601f016020900481019282601f106113b957805160ff19168380011785556113e7565b828001600101855582156113e7579182015b828111156113e65782518255916020019190600101906113cb565b5b5090506113f491906113f8565b5090565b61141a91905b808211156114165760008160009055506001016113fe565b5090565b9056fea165627a7a72305820d99db7f02db5e479e2beaa5fb86e618cb5d0924bec74af7b153f4d3851aa3ac60029",
  "source": "pragma solidity ^0.5.0;\r\n\r\ncontract Prescritor {\r\n    string public nome;\r\n    uint public contReceitas = 0;\r\n    uint digitosCodigo = 16;\r\n    uint moduloCodigo = 10 ** 16;\r\n    mapping(uint => Receita) public receitas;\r\n    address[3] medicos = [\r\n        0xdc962C3b60d18C67D533Ae9Aac1D998Ba85c8BD8,\r\n        0x8c7f1A4A79e4c71FaF3cc1f19f4Aa7a978316623,\r\n        0x55c6dB08E43B3696A44d0414503313555DC4D2bA\r\n    ];\r\n\r\n    address[2] farmacias = [\r\n        0x7465BF48659B1763d388F93f3c58b3998E9f0C95,\r\n        0x37Ef8448CF8fFBB7be7c70C51d01a682065A3973\r\n    ];\r\n\r\n    modifier apenasMedico {\r\n        require(\r\n            msg.sender == medicos[0] ||\r\n            msg.sender == medicos[1] ||\r\n            msg.sender == medicos[2],\r\n            \"Permissao negada!\");\r\n        _;\r\n    }\r\n\r\n    modifier apenasFarmacia {\r\n        require(\r\n            msg.sender == farmacias[0] ||\r\n            msg.sender == farmacias[1],\r\n            \"Permissao negada!\");\r\n        _;\r\n    }\r\n\r\n    struct Receita {\r\n        uint id;\r\n        uint codigo;\r\n        address payable medico;\r\n        address paciente;\r\n        string medicamento;\r\n        uint dosagem;\r\n        string medida;\r\n        bool utilizada;\r\n    }\r\n\r\n    event ReceitaGerada(\r\n        uint id,\r\n        uint codigo,\r\n        address payable medico,\r\n        address paciente,\r\n        string medicamento,\r\n        uint dosagem,\r\n        string medida,\r\n        bool utilizada\r\n    );\r\n\r\n    event ReceitaValidada(\r\n        uint id,\r\n        uint codigo,\r\n        address payable medico,\r\n        address paciente,\r\n        string medicamento,\r\n        uint dosagem,\r\n        string medida,\r\n        bool utilizada\r\n    );\r\n\r\n    constructor() public {\r\n        nome = \"Contrato de Prescrições\";\r\n    }\r\n\r\n    // I - GERAR RECEITA\r\n    function gerarReceita(address _paciente, string memory _medicamento, uint _dosagem, string memory _medida) public apenasMedico {\r\n        contReceitas++;\r\n        receitas[contReceitas] = Receita(contReceitas, gerarCodigo(_medicamento),\r\n        msg.sender, _paciente, _medicamento, _dosagem, _medida, false);\r\n        emit ReceitaGerada(contReceitas, gerarCodigo(_medicamento), msg.sender, _paciente, _medicamento, _dosagem, _medida, false);\r\n    }\r\n\r\n    function gerarCodigo(string memory _medicamento) private view returns (uint) {\r\n        uint randomico = uint(keccak256(bytes(_medicamento)));\r\n        return randomico % moduloCodigo;\r\n    }\r\n\r\n    function validarReceita(uint _id) public apenasFarmacia {\r\n        Receita memory _receita = receitas[_id];\r\n        require(_receita.utilizada == false, \"Esta receita ja foi utilizada!\");\r\n        _receita.utilizada = true;\r\n        receitas[_id] = _receita;\r\n        emit ReceitaValidada(_id, _receita.codigo, _receita.medico, _receita.paciente,\r\n        _receita.medicamento, _receita.dosagem, _receita.medida, _receita.utilizada);\r\n    }\r\n\r\n    // GERAR UM HASH PARA RECEITA\r\n    // IMPLEMENTAR METODO DE VERIFICACAO PARA A RECEITA\r\n    // LICA\r\n\r\n}",
  "sourcePath": "D:/Matheus/Blockchain/Prescritor/src/contracts/Prescritor.sol",
  "compiler": {
    "name": "solc",
    "version": "0.5.0+commit.1d4f565a.Emscripten.clang"
  },
  "schemaVersion": "3.0.2",
  "updatedAt": "2019-12-06T03:40:14.416Z",
  "devdoc": {
    "methods": {}
  },
  "userdoc": {
    "methods": {}
  }
}